S0170000696E766572746F725F3370686173652E73726563F1
S113000012C024C023C022C021C020C01FC01EC0F3
S11300101DC01CC01BC01AC019C018C017C016C010
S113002015C014C013C011241FBECFE5D4E0DEBF39
S1130030CDBF10E0A0E6B0E0EEE5F1E002C005902F
S11300400D92A63AB107D9F702D087C0D9CFA8E953
S1130050B0E0ED91FC91119716962C91822F80952A
S113006090818923822B8083A7E6B0E0ED91FC91F7
S1130070119716962C91822F809590818923822B3B
S11300808083A0E6B0E0ED91FC91119716962C9137
S1130090822F809590818923822B8083E3E8F0E08E
S11300A0A081B1812681822F80959C918923822B06
S11300B08C93CCE7D0E0A881B9812E81822F8095E2
S11300C09C918923822B8C93CAE8D0E0A881B981C2
S11300D08E81282F20959C919223892B8C93A0812B
S11300E0B1818681282F20959C919223892B8C9312
S11300F0AFE9B0E0ED91FC91119716968C91282F01
S1130100209590819223892B8083A1E9B0E0ED9121
S1130110FC91119716968C91282F2095908192230B
S1130120892B8083A5E7B0E0ED91FC911197169699
S11301308C91282F209590819223892B8083AEE681
S1130140B0E0ED91FC91119716968C91282F209593
S111015090819223892B8083FFCFF894FFCFF8
S113015E310032003000103100320030000834001B
S113016E3500330004340035003300013700380005
S113017E360080370038003600403700380036002D
S113018E20370038003600043700380036000237B6
S109019E003800360001E8
S9030000FC
